{
  "_format": "hh-sol-artifact-1",
  "contractName": "WavePortal",
  "sourceName": "contracts/WavePortal.sol",
  "abi": [
    {
      "inputs": [],
      "stateMutability": "nonpayable",
      "type": "constructor"
    },
    {
      "anonymous": false,
      "inputs": [
        {
          "indexed": true,
          "internalType": "address",
          "name": "from",
          "type": "address"
        },
        {
          "indexed": false,
          "internalType": "uint256",
          "name": "timestamp",
          "type": "uint256"
        },
        {
          "indexed": false,
          "internalType": "string",
          "name": "message",
          "type": "string"
        }
      ],
      "name": "NewWave",
      "type": "event"
    },
    {
      "inputs": [],
      "name": "changeIsPausedState",
      "outputs": [],
      "stateMutability": "nonpayable",
      "type": "function"
    },
    {
      "inputs": [],
      "name": "getActualOwner",
      "outputs": [
        {
          "internalType": "address",
          "name": "",
          "type": "address"
        }
      ],
      "stateMutability": "view",
      "type": "function"
    },
    {
      "inputs": [],
      "name": "getAllWaves",
      "outputs": [
        {
          "components": [
            {
              "internalType": "address",
              "name": "waver",
              "type": "address"
            },
            {
              "internalType": "string",
              "name": "message",
              "type": "string"
            },
            {
              "internalType": "uint256",
              "name": "timestamp",
              "type": "uint256"
            }
          ],
          "internalType": "struct WavePortal.Wave[]",
          "name": "",
          "type": "tuple[]"
        }
      ],
      "stateMutability": "view",
      "type": "function"
    },
    {
      "inputs": [],
      "name": "getIsPaused",
      "outputs": [
        {
          "internalType": "bool",
          "name": "",
          "type": "bool"
        }
      ],
      "stateMutability": "view",
      "type": "function"
    },
    {
      "inputs": [],
      "name": "getTotalWaves",
      "outputs": [
        {
          "internalType": "uint256",
          "name": "",
          "type": "uint256"
        }
      ],
      "stateMutability": "view",
      "type": "function"
    },
    {
      "inputs": [
        {
          "internalType": "address",
          "name": "",
          "type": "address"
        }
      ],
      "name": "lastWavedAt",
      "outputs": [
        {
          "internalType": "uint256",
          "name": "",
          "type": "uint256"
        }
      ],
      "stateMutability": "view",
      "type": "function"
    },
    {
      "inputs": [
        {
          "internalType": "address",
          "name": "_owner",
          "type": "address"
        }
      ],
      "name": "setNewOwner",
      "outputs": [],
      "stateMutability": "nonpayable",
      "type": "function"
    },
    {
      "inputs": [
        {
          "internalType": "string",
          "name": "_message",
          "type": "string"
        }
      ],
      "name": "wave",
      "outputs": [],
      "stateMutability": "payable",
      "type": "function"
    }
  ],
  "bytecode": "0x6080604052662386f26fc1000060025566354a6ba7a180006003556605543df729c00060045534801561003157600080fd5b5033600160006101000a81548173ffffffffffffffffffffffffffffffffffffffff021916908373ffffffffffffffffffffffffffffffffffffffff16021790555060018060146101000a81548160ff0219169083151502179055506116c78061009c6000396000f3fe60806040526004361061007b5760003560e01c8063b8fa857f1161004e578063b8fa857f1461011b578063bd43a90814610146578063f2a6f21514610171578063f5a1f5b41461019c5761007b565b80630abe45b214610080578063449d46c0146100975780639a2cdc08146100b3578063a42a4663146100de575b600080fd5b34801561008c57600080fd5b506100956101c5565b005b6100b160048036038101906100ac9190610bb5565b6102a7565b005b3480156100bf57600080fd5b506100c86107e5565b6040516100d591906110b0565b60405180910390f35b3480156100ea57600080fd5b5061010560048036038101906101009190610b8c565b6107ee565b60405161011291906110b0565b60405180910390f35b34801561012757600080fd5b50610130610806565b60405161013d9190610f58565b60405180910390f35b34801561015257600080fd5b5061015b610830565b6040516101689190610f73565b60405180910390f35b34801561017d57600080fd5b50610186610981565b6040516101939190610f95565b60405180910390f35b3480156101a857600080fd5b506101c360048036038101906101be9190610b8c565b610998565b005b600160009054906101000a900473ffffffffffffffffffffffffffffffffffffffff1673ffffffffffffffffffffffffffffffffffffffff163373ffffffffffffffffffffffffffffffffffffffff1614610255576040517f08c379a000000000000000000000000000000000000000000000000000000000815260040161024c90611070565b60405180910390fd5b600160149054906101000a900460ff161561028a576000600160146101000a81548160ff0219169083151502179055506102a5565b60018060146101000a81548160ff0219169083151502179055505b565b60001515600160149054906101000a900460ff161515146102fd576040517f08c379a00000000000000000000000000000000000000000000000000000000081526004016102f490611050565b60405180910390fd5b42610384600660003373ffffffffffffffffffffffffffffffffffffffff1673ffffffffffffffffffffffffffffffffffffffff1681526020019081526020016000205461034b91906111c2565b1061038b576040517f08c379a000000000000000000000000000000000000000000000000000000000815260040161038290610fb0565b60405180910390fd5b60035434146103cf576040517f08c379a00000000000000000000000000000000000000000000000000000000081526004016103c690610fd0565b60405180910390fd5b42600660003373ffffffffffffffffffffffffffffffffffffffff1673ffffffffffffffffffffffffffffffffffffffff16815260200190815260200160002081905550600160008082825461042591906111c2565b92505081905550600560405180606001604052803373ffffffffffffffffffffffffffffffffffffffff16815260200183815260200142815250908060018154018082558091505060019003906000526020600020906003020160009091909190915060008201518160000160006101000a81548173ffffffffffffffffffffffffffffffffffffffff021916908373ffffffffffffffffffffffffffffffffffffffff16021790555060208201518160010190805190602001906104eb929190610a6c565b506040820151816002015550503373ffffffffffffffffffffffffffffffffffffffff167f5f7e16dc676677766a70e9c5628aa6c54ddb8b6e5188e2ae1e1f17f1ffbea71642836040516105409291906110cb565b60405180910390a260006064424433306040516020016105639493929190610f0a565b604051602081830303815290604052805190602001206000602081106105b2577f4e487b7100000000000000000000000000000000000000000000000000000000600052603260045260246000fd5b1a60f81b60f81c6105c39190611340565b905060288160ff1610156106ca57476002541115610616576040517f08c379a000000000000000000000000000000000000000000000000000000000815260040161060d90610ff0565b60405180910390fd5b60003373ffffffffffffffffffffffffffffffffffffffff1660025460405161063e90610ef5565b60006040518083038185875af1925050503d806000811461067b576040519150601f19603f3d011682016040523d82523d6000602084013e610680565b606091505b50509050806106c4576040517f08c379a00000000000000000000000000000000000000000000000000000000081526004016106bb90611030565b60405180910390fd5b506107e1565b47600454111561070f576040517f08c379a000000000000000000000000000000000000000000000000000000000815260040161070690610ff0565b60405180910390fd5b6000600160009054906101000a900473ffffffffffffffffffffffffffffffffffffffff1673ffffffffffffffffffffffffffffffffffffffff1660045460405161075990610ef5565b60006040518083038185875af1925050503d8060008114610796576040519150601f19603f3d011682016040523d82523d6000602084013e61079b565b606091505b50509050806107df576040517f08c379a00000000000000000000000000000000000000000000000000000000081526004016107d690611010565b60405180910390fd5b505b5050565b60008054905090565b60066020528060005260406000206000915090505481565b6000600160009054906101000a900473ffffffffffffffffffffffffffffffffffffffff16905090565b60606005805480602002602001604051908101604052809291908181526020016000905b8282101561097857838290600052602060002090600302016040518060600160405290816000820160009054906101000a900473ffffffffffffffffffffffffffffffffffffffff1673ffffffffffffffffffffffffffffffffffffffff1673ffffffffffffffffffffffffffffffffffffffff1681526020016001820180546108dd906112af565b80601f0160208091040260200160405190810160405280929190818152602001828054610909906112af565b80156109565780601f1061092b57610100808354040283529160200191610956565b820191906000526020600020905b81548152906001019060200180831161093957829003601f168201915b5050505050815260200160028201548152505081526020019060010190610854565b50505050905090565b6000600160149054906101000a900460ff16905090565b600160009054906101000a900473ffffffffffffffffffffffffffffffffffffffff1673ffffffffffffffffffffffffffffffffffffffff163373ffffffffffffffffffffffffffffffffffffffff1614610a28576040517f08c379a0000000000000000000000000000000000000000000000000000000008152600401610a1f90611090565b60405180910390fd5b80600160006101000a81548173ffffffffffffffffffffffffffffffffffffffff021916908373ffffffffffffffffffffffffffffffffffffffff16021790555050565b828054610a78906112af565b90600052602060002090601f016020900481019282610a9a5760008555610ae1565b82601f10610ab357805160ff1916838001178555610ae1565b82800160010185558215610ae1579182015b82811115610ae0578251825591602001919060010190610ac5565b5b509050610aee9190610af2565b5090565b5b80821115610b0b576000816000905550600101610af3565b5090565b6000610b22610b1d84611120565b6110fb565b905082815260208101848484011115610b3a57600080fd5b610b4584828561126d565b509392505050565b600081359050610b5c8161167a565b92915050565b600082601f830112610b7357600080fd5b8135610b83848260208601610b0f565b91505092915050565b600060208284031215610b9e57600080fd5b6000610bac84828501610b4d565b91505092915050565b600060208284031215610bc757600080fd5b600082013567ffffffffffffffff811115610be157600080fd5b610bed84828501610b62565b91505092915050565b6000610c028383610e70565b905092915050565b610c1381611218565b82525050565b610c2281611218565b82525050565b610c39610c3482611218565b611312565b82525050565b6000610c4a82611161565b610c548185611184565b935083602082028501610c6685611151565b8060005b85811015610ca25784840389528151610c838582610bf6565b9450610c8e83611177565b925060208a01995050600181019050610c6a565b50829750879550505050505092915050565b610cbd8161122a565b82525050565b6000610cce8261116c565b610cd881856111a0565b9350610ce881856020860161127c565b610cf18161142d565b840191505092915050565b6000610d078261116c565b610d1181856111b1565b9350610d2181856020860161127c565b610d2a8161142d565b840191505092915050565b6000610d426021836111b1565b9150610d4d8261144b565b604082019050919050565b6000610d65600e836111b1565b9150610d708261149a565b602082019050919050565b6000610d886034836111b1565b9150610d93826114c3565b604082019050919050565b6000610dab6014836111b1565b9150610db682611512565b602082019050919050565b6000610dce6027836111b1565b9150610dd98261153b565b604082019050919050565b6000610df1602f836111b1565b9150610dfc8261158a565b604082019050919050565b6000610e146030836111b1565b9150610e1f826115d9565b604082019050919050565b6000610e37600083611195565b9150610e4282611628565b600082019050919050565b6000610e5a6025836111b1565b9150610e658261162b565b604082019050919050565b6000606083016000830151610e886000860182610c0a565b5060208301518482036020860152610ea08282610cc3565b9150506040830151610eb56040860182610ec0565b508091505092915050565b610ec981611256565b82525050565b610ed881611256565b82525050565b610eef610eea82611256565b611336565b82525050565b6000610f0082610e2a565b9150819050919050565b6000610f168287610ede565b602082019150610f268286610ede565b602082019150610f368285610c28565b601482019150610f468284610c28565b60148201915081905095945050505050565b6000602082019050610f6d6000830184610c19565b92915050565b60006020820190508181036000830152610f8d8184610c3f565b905092915050565b6000602082019050610faa6000830184610cb4565b92915050565b60006020820190508181036000830152610fc981610d35565b9050919050565b60006020820190508181036000830152610fe981610d58565b9050919050565b6000602082019050818103600083015261100981610d7b565b9050919050565b6000602082019050818103600083015261102981610d9e565b9050919050565b6000602082019050818103600083015261104981610dc1565b9050919050565b6000602082019050818103600083015261106981610de4565b9050919050565b6000602082019050818103600083015261108981610e07565b9050919050565b600060208201905081810360008301526110a981610e4d565b9050919050565b60006020820190506110c56000830184610ecf565b92915050565b60006040820190506110e06000830185610ecf565b81810360208301526110f28184610cfc565b90509392505050565b6000611105611116565b905061111182826112e1565b919050565b6000604051905090565b600067ffffffffffffffff82111561113b5761113a6113fe565b5b6111448261142d565b9050602081019050919050565b6000819050602082019050919050565b600081519050919050565b600081519050919050565b6000602082019050919050565b600082825260208201905092915050565b600081905092915050565b600082825260208201905092915050565b600082825260208201905092915050565b60006111cd82611256565b91506111d883611256565b9250827fffffffffffffffffffffffffffffffffffffffffffffffffffffffffffffffff0382111561120d5761120c611371565b5b828201905092915050565b600061122382611236565b9050919050565b60008115159050919050565b600073ffffffffffffffffffffffffffffffffffffffff82169050919050565b6000819050919050565b600060ff82169050919050565b82818337600083830152505050565b60005b8381101561129a57808201518184015260208101905061127f565b838111156112a9576000848401525b50505050565b600060028204905060018216806112c757607f821691505b602082108114156112db576112da6113cf565b5b50919050565b6112ea8261142d565b810181811067ffffffffffffffff82111715611309576113086113fe565b5b80604052505050565b600061131d82611324565b9050919050565b600061132f8261143e565b9050919050565b6000819050919050565b600061134b82611260565b915061135683611260565b925082611366576113656113a0565b5b828206905092915050565b7f4e487b7100000000000000000000000000000000000000000000000000000000600052601160045260246000fd5b7f4e487b7100000000000000000000000000000000000000000000000000000000600052601260045260246000fd5b7f4e487b7100000000000000000000000000000000000000000000000000000000600052602260045260246000fd5b7f4e487b7100000000000000000000000000000000000000000000000000000000600052604160045260246000fd5b6000601f19601f8301169050919050565b60008160601b9050919050565b7f4e65656420746f20776169742031356d206265666f7265206e6578742077617660008201527f6500000000000000000000000000000000000000000000000000000000000000602082015250565b7f4e6f742070617920656e6f756768000000000000000000000000000000000000600082015250565b7f547279696e6720746f207769746864726177206d6f7265206d6f6e657920746860008201527f616e2074686520636f6e7472616374206861732e000000000000000000000000602082015250565b7f4661696c656420746f2073656e64204574686572000000000000000000000000600082015250565b7f4661696c656420746f207769746864726177206d6f6e65792066726f6d20636f60008201527f6e74726163742e00000000000000000000000000000000000000000000000000602082015250565b7f596f752063616e206f6e6c7920776176652069662074686520636f6e7472616360008201527f74206973206e6f74207061757365640000000000000000000000000000000000602082015250565b7f4f6e6c79206f776e6572206f662074686520636f6e74726163742063616e206360008201527f68616e6765207468652073746174757300000000000000000000000000000000602082015250565b50565b7f4f6e6c792061637475616c206f776e65722063616e207365742061206e65772060008201527f6f776e6572000000000000000000000000000000000000000000000000000000602082015250565b61168381611218565b811461168e57600080fd5b5056fea2646970667358221220103501bf6835a719565be046bc54fc68ee9690b36a8cf5c19fe47044b8dccb8f64736f6c63430008010033",
  "linkReferences": {},
  "deployedLinkReferences": {}
}