{
  "_format": "hh-sol-artifact-1",
  "contractName": "WavePortal",
  "sourceName": "contracts/WavePortal.sol",
  "abi": [
    {
      "inputs": [],
      "stateMutability": "nonpayable",
      "type": "constructor"
    },
    {
      "anonymous": false,
      "inputs": [
        {
          "indexed": true,
          "internalType": "address",
          "name": "from",
          "type": "address"
        },
        {
          "indexed": false,
          "internalType": "uint256",
          "name": "timestamp",
          "type": "uint256"
        },
        {
          "indexed": false,
          "internalType": "string",
          "name": "message",
          "type": "string"
        }
      ],
      "name": "NewWave",
      "type": "event"
    },
    {
      "inputs": [],
      "name": "changeIsPausedState",
      "outputs": [],
      "stateMutability": "nonpayable",
      "type": "function"
    },
    {
      "inputs": [],
      "name": "getActualOwner",
      "outputs": [
        {
          "internalType": "address",
          "name": "",
          "type": "address"
        }
      ],
      "stateMutability": "view",
      "type": "function"
    },
    {
      "inputs": [],
      "name": "getAllWaves",
      "outputs": [
        {
          "components": [
            {
              "internalType": "address",
              "name": "waver",
              "type": "address"
            },
            {
              "internalType": "string",
              "name": "message",
              "type": "string"
            },
            {
              "internalType": "uint256",
              "name": "timestamp",
              "type": "uint256"
            }
          ],
          "internalType": "struct WavePortal.Wave[]",
          "name": "",
          "type": "tuple[]"
        }
      ],
      "stateMutability": "view",
      "type": "function"
    },
    {
      "inputs": [],
      "name": "getIsPaused",
      "outputs": [
        {
          "internalType": "bool",
          "name": "",
          "type": "bool"
        }
      ],
      "stateMutability": "view",
      "type": "function"
    },
    {
      "inputs": [],
      "name": "getTotalWaves",
      "outputs": [
        {
          "internalType": "uint256",
          "name": "",
          "type": "uint256"
        }
      ],
      "stateMutability": "view",
      "type": "function"
    },
    {
      "inputs": [
        {
          "internalType": "address",
          "name": "_owner",
          "type": "address"
        }
      ],
      "name": "setNewOwner",
      "outputs": [],
      "stateMutability": "nonpayable",
      "type": "function"
    },
    {
      "inputs": [
        {
          "internalType": "string",
          "name": "_message",
          "type": "string"
        }
      ],
      "name": "wave",
      "outputs": [],
      "stateMutability": "nonpayable",
      "type": "function"
    }
  ],
  "bytecode": "0x608060405234801561001057600080fd5b5033600160006101000a81548173ffffffffffffffffffffffffffffffffffffffff021916908373ffffffffffffffffffffffffffffffffffffffff16021790555060018060146101000a81548160ff021916908315150217905550610e7e8061007b6000396000f3fe608060405234801561001057600080fd5b506004361061007d5760003560e01c8063b8fa857f1161005b578063b8fa857f146100c6578063bd43a908146100e4578063f2a6f21514610102578063f5a1f5b4146101205761007d565b80630abe45b214610082578063449d46c01461008c5780639a2cdc08146100a8575b600080fd5b61008a61013c565b005b6100a660048036038101906100a19190610764565b61021e565b005b6100b06103ac565b6040516100bd9190610a5c565b60405180910390f35b6100ce6103b5565b6040516100db91906109a4565b60405180910390f35b6100ec6103df565b6040516100f991906109bf565b60405180910390f35b61010a610530565b60405161011791906109e1565b60405180910390f35b61013a6004803603810190610135919061073b565b610547565b005b600160009054906101000a900473ffffffffffffffffffffffffffffffffffffffff1673ffffffffffffffffffffffffffffffffffffffff163373ffffffffffffffffffffffffffffffffffffffff16146101cc576040517f08c379a00000000000000000000000000000000000000000000000000000000081526004016101c390610a1c565b60405180910390fd5b600160149054906101000a900460ff1615610201576000600160146101000a81548160ff02191690831515021790555061021c565b60018060146101000a81548160ff0219169083151502179055505b565b60001515600160149054906101000a900460ff16151514610274576040517f08c379a000000000000000000000000000000000000000000000000000000000815260040161026b906109fc565b60405180910390fd5b60016000808282546102869190610b63565b92505081905550600260405180606001604052803373ffffffffffffffffffffffffffffffffffffffff16815260200183815260200142815250908060018154018082558091505060019003906000526020600020906003020160009091909190915060008201518160000160006101000a81548173ffffffffffffffffffffffffffffffffffffffff021916908373ffffffffffffffffffffffffffffffffffffffff160217905550602082015181600101908051906020019061034c92919061061b565b506040820151816002015550503373ffffffffffffffffffffffffffffffffffffffff167f5f7e16dc676677766a70e9c5628aa6c54ddb8b6e5188e2ae1e1f17f1ffbea71642836040516103a1929190610a77565b60405180910390a250565b60008054905090565b6000600160009054906101000a900473ffffffffffffffffffffffffffffffffffffffff16905090565b60606002805480602002602001604051908101604052809291908181526020016000905b8282101561052757838290600052602060002090600302016040518060600160405290816000820160009054906101000a900473ffffffffffffffffffffffffffffffffffffffff1673ffffffffffffffffffffffffffffffffffffffff1673ffffffffffffffffffffffffffffffffffffffff16815260200160018201805461048c90610c43565b80601f01602080910402602001604051908101604052809291908181526020018280546104b890610c43565b80156105055780601f106104da57610100808354040283529160200191610505565b820191906000526020600020905b8154815290600101906020018083116104e857829003601f168201915b5050505050815260200160028201548152505081526020019060010190610403565b50505050905090565b6000600160149054906101000a900460ff16905090565b600160009054906101000a900473ffffffffffffffffffffffffffffffffffffffff1673ffffffffffffffffffffffffffffffffffffffff163373ffffffffffffffffffffffffffffffffffffffff16146105d7576040517f08c379a00000000000000000000000000000000000000000000000000000000081526004016105ce90610a3c565b60405180910390fd5b80600160006101000a81548173ffffffffffffffffffffffffffffffffffffffff021916908373ffffffffffffffffffffffffffffffffffffffff16021790555050565b82805461062790610c43565b90600052602060002090601f0160209004810192826106495760008555610690565b82601f1061066257805160ff1916838001178555610690565b82800160010185558215610690579182015b8281111561068f578251825591602001919060010190610674565b5b50905061069d91906106a1565b5090565b5b808211156106ba5760008160009055506001016106a2565b5090565b60006106d16106cc84610acc565b610aa7565b9050828152602081018484840111156106e957600080fd5b6106f4848285610c01565b509392505050565b60008135905061070b81610e31565b92915050565b600082601f83011261072257600080fd5b81356107328482602086016106be565b91505092915050565b60006020828403121561074d57600080fd5b600061075b848285016106fc565b91505092915050565b60006020828403121561077657600080fd5b600082013567ffffffffffffffff81111561079057600080fd5b61079c84828501610711565b91505092915050565b60006107b18383610936565b905092915050565b6107c281610bb9565b82525050565b6107d181610bb9565b82525050565b60006107e282610b0d565b6107ec8185610b30565b9350836020820285016107fe85610afd565b8060005b8581101561083a578484038952815161081b85826107a5565b945061082683610b23565b925060208a01995050600181019050610802565b50829750879550505050505092915050565b61085581610bcb565b82525050565b600061086682610b18565b6108708185610b41565b9350610880818560208601610c10565b61088981610d33565b840191505092915050565b600061089f82610b18565b6108a98185610b52565b93506108b9818560208601610c10565b6108c281610d33565b840191505092915050565b60006108da602f83610b52565b91506108e582610d44565b604082019050919050565b60006108fd603083610b52565b915061090882610d93565b604082019050919050565b6000610920602583610b52565b915061092b82610de2565b604082019050919050565b600060608301600083015161094e60008601826107b9565b5060208301518482036020860152610966828261085b565b915050604083015161097b6040860182610986565b508091505092915050565b61098f81610bf7565b82525050565b61099e81610bf7565b82525050565b60006020820190506109b960008301846107c8565b92915050565b600060208201905081810360008301526109d981846107d7565b905092915050565b60006020820190506109f6600083018461084c565b92915050565b60006020820190508181036000830152610a15816108cd565b9050919050565b60006020820190508181036000830152610a35816108f0565b9050919050565b60006020820190508181036000830152610a5581610913565b9050919050565b6000602082019050610a716000830184610995565b92915050565b6000604082019050610a8c6000830185610995565b8181036020830152610a9e8184610894565b90509392505050565b6000610ab1610ac2565b9050610abd8282610c75565b919050565b6000604051905090565b600067ffffffffffffffff821115610ae757610ae6610d04565b5b610af082610d33565b9050602081019050919050565b6000819050602082019050919050565b600081519050919050565b600081519050919050565b6000602082019050919050565b600082825260208201905092915050565b600082825260208201905092915050565b600082825260208201905092915050565b6000610b6e82610bf7565b9150610b7983610bf7565b9250827fffffffffffffffffffffffffffffffffffffffffffffffffffffffffffffffff03821115610bae57610bad610ca6565b5b828201905092915050565b6000610bc482610bd7565b9050919050565b60008115159050919050565b600073ffffffffffffffffffffffffffffffffffffffff82169050919050565b6000819050919050565b82818337600083830152505050565b60005b83811015610c2e578082015181840152602081019050610c13565b83811115610c3d576000848401525b50505050565b60006002820490506001821680610c5b57607f821691505b60208210811415610c6f57610c6e610cd5565b5b50919050565b610c7e82610d33565b810181811067ffffffffffffffff82111715610c9d57610c9c610d04565b5b80604052505050565b7f4e487b7100000000000000000000000000000000000000000000000000000000600052601160045260246000fd5b7f4e487b7100000000000000000000000000000000000000000000000000000000600052602260045260246000fd5b7f4e487b7100000000000000000000000000000000000000000000000000000000600052604160045260246000fd5b6000601f19601f8301169050919050565b7f596f752063616e206f6e6c7920776176652069662074686520636f6e7472616360008201527f74206973206e6f74207061757365640000000000000000000000000000000000602082015250565b7f4f6e6c79206f776e6572206f662074686520636f6e74726163742063616e206360008201527f68616e6765207468652073746174757300000000000000000000000000000000602082015250565b7f4f6e6c792061637475616c206f776e65722063616e207365742061206e65772060008201527f6f776e6572000000000000000000000000000000000000000000000000000000602082015250565b610e3a81610bb9565b8114610e4557600080fd5b5056fea2646970667358221220d9d81ba9589670f5a93fa64a7d90f51b05d0dfa8e3a7e537a43d29b97351207b64736f6c63430008010033",
  "linkReferences": {},
  "deployedLinkReferences": {}
}