{
  "_format": "hh-sol-artifact-1",
  "contractName": "WavePortal",
  "sourceName": "contracts/WavePortal.sol",
  "abi": [
    {
      "inputs": [],
      "stateMutability": "nonpayable",
      "type": "constructor"
    },
    {
      "inputs": [],
      "name": "getActualOwner",
      "outputs": [
        {
          "internalType": "address",
          "name": "",
          "type": "address"
        }
      ],
      "stateMutability": "view",
      "type": "function"
    },
    {
      "inputs": [],
      "name": "getTotalWaves",
      "outputs": [
        {
          "internalType": "uint256",
          "name": "",
          "type": "uint256"
        }
      ],
      "stateMutability": "view",
      "type": "function"
    },
    {
      "inputs": [
        {
          "internalType": "address",
          "name": "_owner",
          "type": "address"
        }
      ],
      "name": "setNewOwner",
      "outputs": [],
      "stateMutability": "nonpayable",
      "type": "function"
    },
    {
      "inputs": [],
      "name": "wave",
      "outputs": [],
      "stateMutability": "nonpayable",
      "type": "function"
    }
  ],
  "bytecode": "0x608060405234801561001057600080fd5b5033600160006101000a81548173ffffffffffffffffffffffffffffffffffffffff021916908373ffffffffffffffffffffffffffffffffffffffff16021790555061053a806100616000396000f3fe608060405234801561001057600080fd5b506004361061004c5760003560e01c80636fe15b44146100515780639a2cdc081461005b578063b8fa857f14610079578063f5a1f5b414610097575b600080fd5b6100596100b3565b005b61006361015e565b6040516100709190610362565b60405180910390f35b610081610167565b60405161008e9190610307565b60405180910390f35b6100b160048036038101906100ac919061027a565b610191565b005b600160009054906101000a900473ffffffffffffffffffffffffffffffffffffffff1673ffffffffffffffffffffffffffffffffffffffff163373ffffffffffffffffffffffffffffffffffffffff1614610143576040517f08c379a000000000000000000000000000000000000000000000000000000000815260040161013a90610322565b60405180910390fd5b6001600080828254610155919061038e565b92505081905550565b60008054905090565b6000600160009054906101000a900473ffffffffffffffffffffffffffffffffffffffff16905090565b600160009054906101000a900473ffffffffffffffffffffffffffffffffffffffff1673ffffffffffffffffffffffffffffffffffffffff163373ffffffffffffffffffffffffffffffffffffffff1614610221576040517f08c379a000000000000000000000000000000000000000000000000000000000815260040161021890610342565b60405180910390fd5b80600160006101000a81548173ffffffffffffffffffffffffffffffffffffffff021916908373ffffffffffffffffffffffffffffffffffffffff16021790555050565b600081359050610274816104ed565b92915050565b60006020828403121561028c57600080fd5b600061029a84828501610265565b91505092915050565b6102ac816103e4565b82525050565b60006102bf60238361037d565b91506102ca8261044f565b604082019050919050565b60006102e260258361037d565b91506102ed8261049e565b604082019050919050565b61030181610416565b82525050565b600060208201905061031c60008301846102a3565b92915050565b6000602082019050818103600083015261033b816102b2565b9050919050565b6000602082019050818103600083015261035b816102d5565b9050919050565b600060208201905061037760008301846102f8565b92915050565b600082825260208201905092915050565b600061039982610416565b91506103a483610416565b9250827fffffffffffffffffffffffffffffffffffffffffffffffffffffffffffffffff038211156103d9576103d8610420565b5b828201905092915050565b60006103ef826103f6565b9050919050565b600073ffffffffffffffffffffffffffffffffffffffff82169050919050565b6000819050919050565b7f4e487b7100000000000000000000000000000000000000000000000000000000600052601160045260246000fd5b7f4f6e6c79206f776e6572206f662074686520636f6e74726163742063616e207760008201527f6176650000000000000000000000000000000000000000000000000000000000602082015250565b7f4f6e6c792061637475616c206f776e65722063616e207365742061206e65772060008201527f6f776e6572000000000000000000000000000000000000000000000000000000602082015250565b6104f6816103e4565b811461050157600080fd5b5056fea2646970667358221220f083f740a9eddceb4a2b450e99452aff56b9508a22ef7eceabaf1100f7b15d1b64736f6c63430008010033",
  "linkReferences": {},
  "deployedLinkReferences": {}
}